{
  "_format": "hh-sol-artifact-1",
  "contractName": "NFT",
  "sourceName": "contracts/nft.sol",
  "abi": [
    {
      "inputs": [
        {
          "internalType": "string",
          "name": "_tokenName",
          "type": "string"
        },
        {
          "internalType": "string",
          "name": "_tokenSymbol",
          "type": "string"
        },
        {
          "internalType": "uint256",
          "name": "_cost",
          "type": "uint256"
        },
        {
          "internalType": "uint256",
          "name": "_pauseMint",
          "type": "uint256"
        },
        {
          "internalType": "uint256",
          "name": "_maxSupply",
          "type": "uint256"
        },
        {
          "internalType": "uint256",
          "name": "_maxMintAmountPerTx",
          "type": "uint256"
        },
        {
          "internalType": "string",
          "name": "_uriPrefix",
          "type": "string"
        },
        {
          "internalType": "string",
          "name": "_hiddenMetadataURI",
          "type": "string"
        }
      ],
      "stateMutability": "nonpayable",
      "type": "constructor"
    },
    {
      "inputs": [],
      "name": "ApprovalCallerNotOwnerNorApproved",
      "type": "error"
    },
    {
      "inputs": [],
      "name": "ApprovalQueryForNonexistentToken",
      "type": "error"
    },
    {
      "inputs": [],
      "name": "ApprovalToCurrentOwner",
      "type": "error"
    },
    {
      "inputs": [],
      "name": "ApproveToCaller",
      "type": "error"
    },
    {
      "inputs": [],
      "name": "BalanceQueryForZeroAddress",
      "type": "error"
    },
    {
      "inputs": [],
      "name": "MintToZeroAddress",
      "type": "error"
    },
    {
      "inputs": [],
      "name": "MintZeroQuantity",
      "type": "error"
    },
    {
      "inputs": [],
      "name": "OwnerQueryForNonexistentToken",
      "type": "error"
    },
    {
      "inputs": [],
      "name": "TransferCallerNotOwnerNorApproved",
      "type": "error"
    },
    {
      "inputs": [],
      "name": "TransferFromIncorrectOwner",
      "type": "error"
    },
    {
      "inputs": [],
      "name": "TransferToNonERC721ReceiverImplementer",
      "type": "error"
    },
    {
      "inputs": [],
      "name": "TransferToZeroAddress",
      "type": "error"
    },
    {
      "anonymous": false,
      "inputs": [
        {
          "indexed": true,
          "internalType": "address",
          "name": "owner",
          "type": "address"
        },
        {
          "indexed": true,
          "internalType": "address",
          "name": "approved",
          "type": "address"
        },
        {
          "indexed": true,
          "internalType": "uint256",
          "name": "tokenId",
          "type": "uint256"
        }
      ],
      "name": "Approval",
      "type": "event"
    },
    {
      "anonymous": false,
      "inputs": [
        {
          "indexed": true,
          "internalType": "address",
          "name": "owner",
          "type": "address"
        },
        {
          "indexed": true,
          "internalType": "address",
          "name": "operator",
          "type": "address"
        },
        {
          "indexed": false,
          "internalType": "bool",
          "name": "approved",
          "type": "bool"
        }
      ],
      "name": "ApprovalForAll",
      "type": "event"
    },
    {
      "anonymous": false,
      "inputs": [
        {
          "indexed": true,
          "internalType": "address",
          "name": "previousOwner",
          "type": "address"
        },
        {
          "indexed": true,
          "internalType": "address",
          "name": "newOwner",
          "type": "address"
        }
      ],
      "name": "OwnershipTransferred",
      "type": "event"
    },
    {
      "anonymous": false,
      "inputs": [
        {
          "indexed": true,
          "internalType": "address",
          "name": "from",
          "type": "address"
        },
        {
          "indexed": true,
          "internalType": "address",
          "name": "to",
          "type": "address"
        },
        {
          "indexed": true,
          "internalType": "uint256",
          "name": "tokenId",
          "type": "uint256"
        }
      ],
      "name": "Transfer",
      "type": "event"
    },
    {
      "inputs": [
        {
          "internalType": "address",
          "name": "to",
          "type": "address"
        },
        {
          "internalType": "uint256",
          "name": "tokenId",
          "type": "uint256"
        }
      ],
      "name": "approve",
      "outputs": [],
      "stateMutability": "nonpayable",
      "type": "function"
    },
    {
      "inputs": [
        {
          "internalType": "address",
          "name": "owner",
          "type": "address"
        }
      ],
      "name": "balanceOf",
      "outputs": [
        {
          "internalType": "uint256",
          "name": "",
          "type": "uint256"
        }
      ],
      "stateMutability": "view",
      "type": "function"
    },
    {
      "inputs": [],
      "name": "cost",
      "outputs": [
        {
          "internalType": "uint256",
          "name": "",
          "type": "uint256"
        }
      ],
      "stateMutability": "view",
      "type": "function"
    },
    {
      "inputs": [
        {
          "internalType": "uint256",
          "name": "tokenId",
          "type": "uint256"
        }
      ],
      "name": "getApproved",
      "outputs": [
        {
          "internalType": "address",
          "name": "",
          "type": "address"
        }
      ],
      "stateMutability": "view",
      "type": "function"
    },
    {
      "inputs": [],
      "name": "hiddenMetadataURI",
      "outputs": [
        {
          "internalType": "string",
          "name": "",
          "type": "string"
        }
      ],
      "stateMutability": "view",
      "type": "function"
    },
    {
      "inputs": [
        {
          "internalType": "address",
          "name": "owner",
          "type": "address"
        },
        {
          "internalType": "address",
          "name": "operator",
          "type": "address"
        }
      ],
      "name": "isApprovedForAll",
      "outputs": [
        {
          "internalType": "bool",
          "name": "",
          "type": "bool"
        }
      ],
      "stateMutability": "view",
      "type": "function"
    },
    {
      "inputs": [],
      "name": "maxMintAmountPerTx",
      "outputs": [
        {
          "internalType": "uint256",
          "name": "",
          "type": "uint256"
        }
      ],
      "stateMutability": "view",
      "type": "function"
    },
    {
      "inputs": [],
      "name": "maxMintAmountPerWallet",
      "outputs": [
        {
          "internalType": "uint256",
          "name": "",
          "type": "uint256"
        }
      ],
      "stateMutability": "view",
      "type": "function"
    },
    {
      "inputs": [],
      "name": "maxSupply",
      "outputs": [
        {
          "internalType": "uint256",
          "name": "",
          "type": "uint256"
        }
      ],
      "stateMutability": "view",
      "type": "function"
    },
    {
      "inputs": [],
      "name": "merkleRoot",
      "outputs": [
        {
          "internalType": "bytes32",
          "name": "",
          "type": "bytes32"
        }
      ],
      "stateMutability": "view",
      "type": "function"
    },
    {
      "inputs": [
        {
          "internalType": "uint256",
          "name": "_mintAmount",
          "type": "uint256"
        }
      ],
      "name": "mint",
      "outputs": [],
      "stateMutability": "payable",
      "type": "function"
    },
    {
      "inputs": [
        {
          "internalType": "uint256",
          "name": "_mintAmount",
          "type": "uint256"
        },
        {
          "internalType": "address",
          "name": "_receiver",
          "type": "address"
        }
      ],
      "name": "mintForAddress",
      "outputs": [],
      "stateMutability": "nonpayable",
      "type": "function"
    },
    {
      "inputs": [
        {
          "internalType": "address[]",
          "name": "_addresses",
          "type": "address[]"
        }
      ],
      "name": "mintForMultipleAddresses",
      "outputs": [],
      "stateMutability": "nonpayable",
      "type": "function"
    },
    {
      "inputs": [],
      "name": "name",
      "outputs": [
        {
          "internalType": "string",
          "name": "",
          "type": "string"
        }
      ],
      "stateMutability": "view",
      "type": "function"
    },
    {
      "inputs": [],
      "name": "owner",
      "outputs": [
        {
          "internalType": "address",
          "name": "",
          "type": "address"
        }
      ],
      "stateMutability": "view",
      "type": "function"
    },
    {
      "inputs": [
        {
          "internalType": "uint256",
          "name": "tokenId",
          "type": "uint256"
        }
      ],
      "name": "ownerOf",
      "outputs": [
        {
          "internalType": "address",
          "name": "",
          "type": "address"
        }
      ],
      "stateMutability": "view",
      "type": "function"
    },
    {
      "inputs": [
        {
          "internalType": "address",
          "name": "",
          "type": "address"
        }
      ],
      "name": "ownerTokenMapping",
      "outputs": [
        {
          "internalType": "uint256",
          "name": "",
          "type": "uint256"
        }
      ],
      "stateMutability": "view",
      "type": "function"
    },
    {
      "inputs": [],
      "name": "paused",
      "outputs": [
        {
          "internalType": "bool",
          "name": "",
          "type": "bool"
        }
      ],
      "stateMutability": "view",
      "type": "function"
    },
    {
      "inputs": [],
      "name": "renounceOwnership",
      "outputs": [],
      "stateMutability": "nonpayable",
      "type": "function"
    },
    {
      "inputs": [],
      "name": "revealed",
      "outputs": [
        {
          "internalType": "bool",
          "name": "",
          "type": "bool"
        }
      ],
      "stateMutability": "view",
      "type": "function"
    },
    {
      "inputs": [
        {
          "internalType": "address",
          "name": "from",
          "type": "address"
        },
        {
          "internalType": "address",
          "name": "to",
          "type": "address"
        },
        {
          "internalType": "uint256",
          "name": "tokenId",
          "type": "uint256"
        }
      ],
      "name": "safeTransferFrom",
      "outputs": [],
      "stateMutability": "nonpayable",
      "type": "function"
    },
    {
      "inputs": [
        {
          "internalType": "address",
          "name": "from",
          "type": "address"
        },
        {
          "internalType": "address",
          "name": "to",
          "type": "address"
        },
        {
          "internalType": "uint256",
          "name": "tokenId",
          "type": "uint256"
        },
        {
          "internalType": "bytes",
          "name": "_data",
          "type": "bytes"
        }
      ],
      "name": "safeTransferFrom",
      "outputs": [],
      "stateMutability": "nonpayable",
      "type": "function"
    },
    {
      "inputs": [
        {
          "internalType": "address",
          "name": "operator",
          "type": "address"
        },
        {
          "internalType": "bool",
          "name": "approved",
          "type": "bool"
        }
      ],
      "name": "setApprovalForAll",
      "outputs": [],
      "stateMutability": "nonpayable",
      "type": "function"
    },
    {
      "inputs": [
        {
          "internalType": "uint256",
          "name": "_cost",
          "type": "uint256"
        }
      ],
      "name": "setCost",
      "outputs": [],
      "stateMutability": "nonpayable",
      "type": "function"
    },
    {
      "inputs": [
        {
          "internalType": "uint256",
          "name": "_maxMintAmountPerTx",
          "type": "uint256"
        }
      ],
      "name": "setMaxMintAmountPerTx",
      "outputs": [],
      "stateMutability": "nonpayable",
      "type": "function"
    },
    {
      "inputs": [
        {
          "internalType": "uint256",
          "name": "_maxMintAmountPerWallet",
          "type": "uint256"
        }
      ],
      "name": "setMaxMintAmountPerWallet",
      "outputs": [],
      "stateMutability": "nonpayable",
      "type": "function"
    },
    {
      "inputs": [
        {
          "internalType": "bytes32",
          "name": "_merkleRoot",
          "type": "bytes32"
        }
      ],
      "name": "setMerkleRoot",
      "outputs": [],
      "stateMutability": "nonpayable",
      "type": "function"
    },
    {
      "inputs": [
        {
          "internalType": "uint256",
          "name": "_amount",
          "type": "uint256"
        }
      ],
      "name": "setPauseMint",
      "outputs": [],
      "stateMutability": "nonpayable",
      "type": "function"
    },
    {
      "inputs": [
        {
          "internalType": "bool",
          "name": "_state",
          "type": "bool"
        }
      ],
      "name": "setPaused",
      "outputs": [],
      "stateMutability": "nonpayable",
      "type": "function"
    },
    {
      "inputs": [
        {
          "internalType": "bool",
          "name": "_state",
          "type": "bool"
        }
      ],
      "name": "setRevealed",
      "outputs": [],
      "stateMutability": "nonpayable",
      "type": "function"
    },
    {
      "inputs": [
        {
          "internalType": "string",
          "name": "_uriPrefix",
          "type": "string"
        }
      ],
      "name": "setUriPrefix",
      "outputs": [],
      "stateMutability": "nonpayable",
      "type": "function"
    },
    {
      "inputs": [
        {
          "internalType": "string",
          "name": "_uriSuffix",
          "type": "string"
        }
      ],
      "name": "setUriSuffix",
      "outputs": [],
      "stateMutability": "nonpayable",
      "type": "function"
    },
    {
      "inputs": [
        {
          "internalType": "bool",
          "name": "_state",
          "type": "bool"
        }
      ],
      "name": "setWhitelistMintEnabled",
      "outputs": [],
      "stateMutability": "nonpayable",
      "type": "function"
    },
    {
      "inputs": [
        {
          "internalType": "string",
          "name": "_hiddenMetadataURI",
          "type": "string"
        }
      ],
      "name": "sethiddenMetadataURI",
      "outputs": [],
      "stateMutability": "nonpayable",
      "type": "function"
    },
    {
      "inputs": [
        {
          "internalType": "bytes4",
          "name": "interfaceId",
          "type": "bytes4"
        }
      ],
      "name": "supportsInterface",
      "outputs": [
        {
          "internalType": "bool",
          "name": "",
          "type": "bool"
        }
      ],
      "stateMutability": "view",
      "type": "function"
    },
    {
      "inputs": [],
      "name": "symbol",
      "outputs": [
        {
          "internalType": "string",
          "name": "",
          "type": "string"
        }
      ],
      "stateMutability": "view",
      "type": "function"
    },
    {
      "inputs": [
        {
          "internalType": "uint256",
          "name": "_tokenId",
          "type": "uint256"
        }
      ],
      "name": "tokenURI",
      "outputs": [
        {
          "internalType": "string",
          "name": "",
          "type": "string"
        }
      ],
      "stateMutability": "view",
      "type": "function"
    },
    {
      "inputs": [],
      "name": "totalSupply",
      "outputs": [
        {
          "internalType": "uint256",
          "name": "",
          "type": "uint256"
        }
      ],
      "stateMutability": "view",
      "type": "function"
    },
    {
      "inputs": [
        {
          "internalType": "address",
          "name": "from",
          "type": "address"
        },
        {
          "internalType": "address",
          "name": "to",
          "type": "address"
        },
        {
          "internalType": "uint256",
          "name": "tokenId",
          "type": "uint256"
        }
      ],
      "name": "transferFrom",
      "outputs": [],
      "stateMutability": "nonpayable",
      "type": "function"
    },
    {
      "inputs": [
        {
          "internalType": "address",
          "name": "newOwner",
          "type": "address"
        }
      ],
      "name": "transferOwnership",
      "outputs": [],
      "stateMutability": "nonpayable",
      "type": "function"
    },
    {
      "inputs": [],
      "name": "uriPrefix",
      "outputs": [
        {
          "internalType": "string",
          "name": "",
          "type": "string"
        }
      ],
      "stateMutability": "view",
      "type": "function"
    },
    {
      "inputs": [],
      "name": "uriSuffix",
      "outputs": [
        {
          "internalType": "string",
          "name": "",
          "type": "string"
        }
      ],
      "stateMutability": "view",
      "type": "function"
    },
    {
      "inputs": [
        {
          "internalType": "address",
          "name": "_owner",
          "type": "address"
        }
      ],
      "name": "walletOfOwner",
      "outputs": [
        {
          "internalType": "uint256[]",
          "name": "",
          "type": "uint256[]"
        }
      ],
      "stateMutability": "view",
      "type": "function"
    },
    {
      "inputs": [
        {
          "internalType": "address",
          "name": "",
          "type": "address"
        }
      ],
      "name": "whitelistClaimed",
      "outputs": [
        {
          "internalType": "bool",
          "name": "",
          "type": "bool"
        }
      ],
      "stateMutability": "view",
      "type": "function"
    },
    {
      "inputs": [
        {
          "internalType": "uint256",
          "name": "_mintAmount",
          "type": "uint256"
        },
        {
          "internalType": "bytes32[]",
          "name": "_merkleProof",
          "type": "bytes32[]"
        }
      ],
      "name": "whitelistMint",
      "outputs": [],
      "stateMutability": "payable",
      "type": "function"
    },
    {
      "inputs": [],
      "name": "whitelistMintEnabled",
      "outputs": [
        {
          "internalType": "bool",
          "name": "",
          "type": "bool"
        }
      ],
      "stateMutability": "view",
      "type": "function"
    },
    {
      "inputs": [],
      "name": "withdraw",
      "outputs": [],
      "stateMutability": "nonpayable",
      "type": "function"
    }
  ],
  "bytecode": "0x60806040523480156200001157600080fd5b506040518060400160405280600b81526020017f4d656e746f7243616c6c730000000000000000000000000000000000000000008152506040518060400160405280600381526020017f4e46540000000000000000000000000000000000000000000000000000000000815250816000908051906020019062000096929190620001a6565b508060019080519060200190620000af929190620001a6565b505050620000d2620000c6620000d860201b60201c565b620000e060201b60201c565b620002bb565b600033905090565b6000600760009054906101000a900473ffffffffffffffffffffffffffffffffffffffff16905081600760006101000a81548173ffffffffffffffffffffffffffffffffffffffff021916908373ffffffffffffffffffffffffffffffffffffffff1602179055508173ffffffffffffffffffffffffffffffffffffffff168173ffffffffffffffffffffffffffffffffffffffff167f8be0079c531659141344cd1fd0a4f28419497f9722a3daafe3b4186f6b6457e060405160405180910390a35050565b828054620001b49062000256565b90600052602060002090601f016020900481019282620001d8576000855562000224565b82601f10620001f357805160ff191683800117855562000224565b8280016001018555821562000224579182015b828111156200022357825182559160200191906001019062000206565b5b50905062000233919062000237565b5090565b5b808211156200025257600081600090555060010162000238565b5090565b600060028204905060018216806200026f57607f821691505b602082108114156200028657620002856200028c565b5b50919050565b7f4e487b7100000000000000000000000000000000000000000000000000000000600052602260045260246000fd5b6132a780620002cb6000396000f3fe6080604052600436106101145760003560e01c8063715018a6116100a0578063c87b56dd11610064578063c87b56dd1461038e578063d31af484146103cb578063e6fffa0a146103f4578063e985e9c514610410578063f2fde38b1461044d57610114565b8063715018a6146102cf5780638da5cb5b146102e657806395d89b4114610311578063a22cb4651461033c578063b88d4fde1461036557610114565b806323b872dd116100e757806323b872dd146101e75780633053cc6b1461021057806342842e0e1461022c5780636352211e1461025557806370a082311461029257610114565b806301ffc9a71461011957806306fdde0314610156578063081812fc14610181578063095ea7b3146101be575b600080fd5b34801561012557600080fd5b50610140600480360381019061013b9190612170565b610476565b60405161014d9190612633565b60405180910390f35b34801561016257600080fd5b5061016b610558565b604051610178919061264e565b60405180910390f35b34801561018d57600080fd5b506101a860048036038101906101a391906121c2565b6105ea565b6040516101b591906125cc565b60405180910390f35b3480156101ca57600080fd5b506101e560048036038101906101e09190612134565b61066f565b005b3480156101f357600080fd5b5061020e60048036038101906102099190611fda565b610787565b005b61022a600480360381019061022591906120e0565b6107e7565b005b34801561023857600080fd5b50610253600480360381019061024e9190611fda565b610863565b005b34801561026157600080fd5b5061027c600480360381019061027791906121c2565b610883565b60405161028991906125cc565b60405180910390f35b34801561029e57600080fd5b506102b960048036038101906102b49190611f75565b610935565b6040516102c691906128d0565b60405180910390f35b3480156102db57600080fd5b506102e46109ed565b005b3480156102f257600080fd5b506102fb610a75565b60405161030891906125cc565b60405180910390f35b34801561031d57600080fd5b50610326610a9f565b604051610333919061264e565b60405180910390f35b34801561034857600080fd5b50610363600480360381019061035e91906120a4565b610b31565b005b34801561037157600080fd5b5061038c60048036038101906103879190612029565b610b47565b005b34801561039a57600080fd5b506103b560048036038101906103b091906121c2565b610ba9565b6040516103c2919061264e565b60405180910390f35b3480156103d757600080fd5b506103f260048036038101906103ed91906121eb565b610cfb565b005b61040e600480360381019061040991906120e0565b610d85565b005b34801561041c57600080fd5b5061043760048036038101906104329190611f9e565b610e01565b6040516104449190612633565b60405180910390f35b34801561045957600080fd5b50610474600480360381019061046f9190611f75565b610e95565b005b60007f80ac58cd000000000000000000000000000000000000000000000000000000007bffffffffffffffffffffffffffffffffffffffffffffffffffffffff1916827bffffffffffffffffffffffffffffffffffffffffffffffffffffffff1916148061054157507f5b5e139f000000000000000000000000000000000000000000000000000000007bffffffffffffffffffffffffffffffffffffffffffffffffffffffff1916827bffffffffffffffffffffffffffffffffffffffffffffffffffffffff1916145b80610551575061055082610f8d565b5b9050919050565b60606000805461056790612b26565b80601f016020809104026020016040519081016040528092919081815260200182805461059390612b26565b80156105e05780601f106105b5576101008083540402835291602001916105e0565b820191906000526020600020905b8154815290600101906020018083116105c357829003601f168201915b5050505050905090565b60006105f582610ff7565b610634576040517f08c379a000000000000000000000000000000000000000000000000000000000815260040161062b90612810565b60405180910390fd5b6004600083815260200190815260200160002060009054906101000a900473ffffffffffffffffffffffffffffffffffffffff169050919050565b600061067a82610883565b90508073ffffffffffffffffffffffffffffffffffffffff168373ffffffffffffffffffffffffffffffffffffffff1614156106eb576040517f08c379a00000000000000000000000000000000000000000000000000000000081526004016106e290612870565b60405180910390fd5b8073ffffffffffffffffffffffffffffffffffffffff1661070a611063565b73ffffffffffffffffffffffffffffffffffffffff161480610739575061073881610733611063565b610e01565b5b610778576040517f08c379a000000000000000000000000000000000000000000000000000000000815260040161076f90612750565b60405180910390fd5b610782838361106b565b505050565b610798610792611063565b82611124565b6107d7576040517f08c379a00000000000000000000000000000000000000000000000000000000081526004016107ce90612890565b60405180910390fd5b6107e2838383611202565b505050565b6702c68af0bb140000341015610832576040517f08c379a0000000000000000000000000000000000000000000000000000000008152600401610829906128b0565b60405180910390fd5b61083c6008611469565b6000610848600861147f565b9050610854838261148d565b61085e8183611667565b505050565b61087e83838360405180602001604052806000815250610b47565b505050565b6000806002600084815260200190815260200160002060009054906101000a900473ffffffffffffffffffffffffffffffffffffffff169050600073ffffffffffffffffffffffffffffffffffffffff168173ffffffffffffffffffffffffffffffffffffffff16141561092c576040517f08c379a000000000000000000000000000000000000000000000000000000000815260040161092390612790565b60405180910390fd5b80915050919050565b60008073ffffffffffffffffffffffffffffffffffffffff168273ffffffffffffffffffffffffffffffffffffffff1614156109a6576040517f08c379a000000000000000000000000000000000000000000000000000000000815260040161099d90612770565b60405180910390fd5b600360008373ffffffffffffffffffffffffffffffffffffffff1673ffffffffffffffffffffffffffffffffffffffff168152602001908152602001600020549050919050565b6109f5611063565b73ffffffffffffffffffffffffffffffffffffffff16610a13610a75565b73ffffffffffffffffffffffffffffffffffffffff1614610a69576040517f08c379a0000000000000000000000000000000000000000000000000000000008152600401610a6090612830565b60405180910390fd5b610a7360006116db565b565b6000600760009054906101000a900473ffffffffffffffffffffffffffffffffffffffff16905090565b606060018054610aae90612b26565b80601f0160208091040260200160405190810160405280929190818152602001828054610ada90612b26565b8015610b275780601f10610afc57610100808354040283529160200191610b27565b820191906000526020600020905b815481529060010190602001808311610b0a57829003601f168201915b5050505050905090565b610b43610b3c611063565b83836117a1565b5050565b610b58610b52611063565b83611124565b610b97576040517f08c379a0000000000000000000000000000000000000000000000000000000008152600401610b8e90612890565b60405180910390fd5b610ba38484848461190e565b50505050565b6060610bb482610ff7565b610bf3576040517f08c379a0000000000000000000000000000000000000000000000000000000008152600401610bea906127f0565b60405180910390fd5b6000600660008481526020019081526020016000208054610c1390612b26565b80601f0160208091040260200160405190810160405280929190818152602001828054610c3f90612b26565b8015610c8c5780601f10610c6157610100808354040283529160200191610c8c565b820191906000526020600020905b815481529060010190602001808311610c6f57829003601f168201915b505050505090506000610c9d61196a565b9050600081511415610cb3578192505050610cf6565b600082511115610ce8578082604051602001610cd09291906125a8565b60405160208183030381529060405292505050610cf6565b610cf184611981565b925050505b919050565b610d03611063565b73ffffffffffffffffffffffffffffffffffffffff16610d21610a75565b73ffffffffffffffffffffffffffffffffffffffff1614610d77576040517f08c379a0000000000000000000000000000000000000000000000000000000008152600401610d6e90612830565b60405180910390fd5b610d818282611667565b5050565b6704db732547630000341015610dd0576040517f08c379a0000000000000000000000000000000000000000000000000000000008152600401610dc7906128b0565b60405180910390fd5b610dda6008611469565b6000610de6600861147f565b9050610df2838261148d565b610dfc8183611667565b505050565b6000600560008473ffffffffffffffffffffffffffffffffffffffff1673ffffffffffffffffffffffffffffffffffffffff16815260200190815260200160002060008373ffffffffffffffffffffffffffffffffffffffff1673ffffffffffffffffffffffffffffffffffffffff16815260200190815260200160002060009054906101000a900460ff16905092915050565b610e9d611063565b73ffffffffffffffffffffffffffffffffffffffff16610ebb610a75565b73ffffffffffffffffffffffffffffffffffffffff1614610f11576040517f08c379a0000000000000000000000000000000000000000000000000000000008152600401610f0890612830565b60405180910390fd5b600073ffffffffffffffffffffffffffffffffffffffff168173ffffffffffffffffffffffffffffffffffffffff161415610f81576040517f08c379a0000000000000000000000000000000000000000000000000000000008152600401610f7890612690565b60405180910390fd5b610f8a816116db565b50565b60007f01ffc9a7000000000000000000000000000000000000000000000000000000007bffffffffffffffffffffffffffffffffffffffffffffffffffffffff1916827bffffffffffffffffffffffffffffffffffffffffffffffffffffffff1916149050919050565b60008073ffffffffffffffffffffffffffffffffffffffff166002600084815260200190815260200160002060009054906101000a900473ffffffffffffffffffffffffffffffffffffffff1673ffffffffffffffffffffffffffffffffffffffff1614159050919050565b600033905090565b816004600083815260200190815260200160002060006101000a81548173ffffffffffffffffffffffffffffffffffffffff021916908373ffffffffffffffffffffffffffffffffffffffff160217905550808273ffffffffffffffffffffffffffffffffffffffff166110de83610883565b73ffffffffffffffffffffffffffffffffffffffff167f8c5be1e5ebec7d5bd14f71427d1e84f3dd0314c0f7b2291e5b200ac8c7c3b92560405160405180910390a45050565b600061112f82610ff7565b61116e576040517f08c379a000000000000000000000000000000000000000000000000000000000815260040161116590612730565b60405180910390fd5b600061117983610883565b90508073ffffffffffffffffffffffffffffffffffffffff168473ffffffffffffffffffffffffffffffffffffffff1614806111e857508373ffffffffffffffffffffffffffffffffffffffff166111d0846105ea565b73ffffffffffffffffffffffffffffffffffffffff16145b806111f957506111f88185610e01565b5b91505092915050565b8273ffffffffffffffffffffffffffffffffffffffff1661122282610883565b73ffffffffffffffffffffffffffffffffffffffff1614611278576040517f08c379a000000000000000000000000000000000000000000000000000000000815260040161126f906126b0565b60405180910390fd5b600073ffffffffffffffffffffffffffffffffffffffff168273ffffffffffffffffffffffffffffffffffffffff1614156112e8576040517f08c379a00000000000000000000000000000000000000000000000000000000081526004016112df906126f0565b60405180910390fd5b6112f3838383611a28565b6112fe60008261106b565b6001600360008573ffffffffffffffffffffffffffffffffffffffff1673ffffffffffffffffffffffffffffffffffffffff168152602001908152602001600020600082825461134e9190612a3c565b925050819055506001600360008473ffffffffffffffffffffffffffffffffffffffff1673ffffffffffffffffffffffffffffffffffffffff16815260200190815260200160002060008282546113a591906129b5565b92505081905550816002600083815260200190815260200160002060006101000a81548173ffffffffffffffffffffffffffffffffffffffff021916908373ffffffffffffffffffffffffffffffffffffffff160217905550808273ffffffffffffffffffffffffffffffffffffffff168473ffffffffffffffffffffffffffffffffffffffff167fddf252ad1be2c89b69c2b068fc378daa952ba7f163c4a11628f55a4df523b3ef60405160405180910390a4611464838383611a2d565b505050565b6001816000016000828254019250508190555050565b600081600001549050919050565b600073ffffffffffffffffffffffffffffffffffffffff168273ffffffffffffffffffffffffffffffffffffffff1614156114fd576040517f08c379a00000000000000000000000000000000000000000000000000000000081526004016114f4906127d0565b60405180910390fd5b61150681610ff7565b15611546576040517f08c379a000000000000000000000000000000000000000000000000000000000815260040161153d906126d0565b60405180910390fd5b61155260008383611a28565b6001600360008473ffffffffffffffffffffffffffffffffffffffff1673ffffffffffffffffffffffffffffffffffffffff16815260200190815260200160002060008282546115a291906129b5565b92505081905550816002600083815260200190815260200160002060006101000a81548173ffffffffffffffffffffffffffffffffffffffff021916908373ffffffffffffffffffffffffffffffffffffffff160217905550808273ffffffffffffffffffffffffffffffffffffffff16600073ffffffffffffffffffffffffffffffffffffffff167fddf252ad1be2c89b69c2b068fc378daa952ba7f163c4a11628f55a4df523b3ef60405160405180910390a461166360008383611a2d565b5050565b61167082610ff7565b6116af576040517f08c379a00000000000000000000000000000000000000000000000000000000081526004016116a6906127b0565b60405180910390fd5b806006600084815260200190815260200160002090805190602001906116d6929190611d99565b505050565b6000600760009054906101000a900473ffffffffffffffffffffffffffffffffffffffff16905081600760006101000a81548173ffffffffffffffffffffffffffffffffffffffff021916908373ffffffffffffffffffffffffffffffffffffffff1602179055508173ffffffffffffffffffffffffffffffffffffffff168173ffffffffffffffffffffffffffffffffffffffff167f8be0079c531659141344cd1fd0a4f28419497f9722a3daafe3b4186f6b6457e060405160405180910390a35050565b8173ffffffffffffffffffffffffffffffffffffffff168373ffffffffffffffffffffffffffffffffffffffff161415611810576040517f08c379a000000000000000000000000000000000000000000000000000000000815260040161180790612710565b60405180910390fd5b80600560008573ffffffffffffffffffffffffffffffffffffffff1673ffffffffffffffffffffffffffffffffffffffff16815260200190815260200160002060008473ffffffffffffffffffffffffffffffffffffffff1673ffffffffffffffffffffffffffffffffffffffff16815260200190815260200160002060006101000a81548160ff0219169083151502179055508173ffffffffffffffffffffffffffffffffffffffff168373ffffffffffffffffffffffffffffffffffffffff167f17307eab39ab6107e8899845ad3d59bd9653f200f220920489ca2b5937696c31836040516119019190612633565b60405180910390a3505050565b611919848484611202565b61192584848484611a32565b611964576040517f08c379a000000000000000000000000000000000000000000000000000000000815260040161195b90612670565b60405180910390fd5b50505050565b606060405180602001604052806000815250905090565b606061198c82610ff7565b6119cb576040517f08c379a00000000000000000000000000000000000000000000000000000000081526004016119c290612850565b60405180910390fd5b60006119d561196a565b905060008151116119f55760405180602001604052806000815250611a20565b806119ff84611bc9565b604051602001611a109291906125a8565b6040516020818303038152906040525b915050919050565b505050565b505050565b6000611a538473ffffffffffffffffffffffffffffffffffffffff16611d76565b15611bbc578373ffffffffffffffffffffffffffffffffffffffff1663150b7a02611a7c611063565b8786866040518563ffffffff1660e01b8152600401611a9e94939291906125e7565b602060405180830381600087803b158015611ab857600080fd5b505af1925050508015611ae957506040513d601f19601f82011682018060405250810190611ae69190612199565b60015b611b6c573d8060008114611b19576040519150601f19603f3d011682016040523d82523d6000602084013e611b1e565b606091505b50600081511415611b64576040517f08c379a0000000000000000000000000000000000000000000000000000000008152600401611b5b90612670565b60405180910390fd5b805181602001fd5b63150b7a0260e01b7bffffffffffffffffffffffffffffffffffffffffffffffffffffffff1916817bffffffffffffffffffffffffffffffffffffffffffffffffffffffff191614915050611bc1565b600190505b949350505050565b60606000821415611c11576040518060400160405280600181526020017f30000000000000000000000000000000000000000000000000000000000000008152509050611d71565b600082905060005b60008214611c43578080611c2c90612b89565b915050600a82611c3c9190612a0b565b9150611c19565b60008167ffffffffffffffff811115611c85577f4e487b7100000000000000000000000000000000000000000000000000000000600052604160045260246000fd5b6040519080825280601f01601f191660200182016040528015611cb75781602001600182028036833780820191505090505b5090505b60008514611d6a57600182611cd09190612a3c565b9150600a85611cdf9190612bd2565b6030611ceb91906129b5565b60f81b818381518110611d27577f4e487b7100000000000000000000000000000000000000000000000000000000600052603260045260246000fd5b60200101907effffffffffffffffffffffffffffffffffffffffffffffffffffffffffffff1916908160001a905350600a85611d639190612a0b565b9450611cbb565b8093505050505b919050565b6000808273ffffffffffffffffffffffffffffffffffffffff163b119050919050565b828054611da590612b26565b90600052602060002090601f016020900481019282611dc75760008555611e0e565b82601f10611de057805160ff1916838001178555611e0e565b82800160010185558215611e0e579182015b82811115611e0d578251825591602001919060010190611df2565b5b509050611e1b9190611e1f565b5090565b5b80821115611e38576000816000905550600101611e20565b5090565b6000611e4f611e4a84612910565b6128eb565b905082815260208101848484011115611e6757600080fd5b611e72848285612ae4565b509392505050565b6000611e8d611e8884612941565b6128eb565b905082815260208101848484011115611ea557600080fd5b611eb0848285612ae4565b509392505050565b600081359050611ec781613215565b92915050565b600081359050611edc8161322c565b92915050565b600081359050611ef181613243565b92915050565b600081519050611f0681613243565b92915050565b600082601f830112611f1d57600080fd5b8135611f2d848260208601611e3c565b91505092915050565b600082601f830112611f4757600080fd5b8135611f57848260208601611e7a565b91505092915050565b600081359050611f6f8161325a565b92915050565b600060208284031215611f8757600080fd5b6000611f9584828501611eb8565b91505092915050565b60008060408385031215611fb157600080fd5b6000611fbf85828601611eb8565b9250506020611fd085828601611eb8565b9150509250929050565b600080600060608486031215611fef57600080fd5b6000611ffd86828701611eb8565b935050602061200e86828701611eb8565b925050604061201f86828701611f60565b9150509250925092565b6000806000806080858703121561203f57600080fd5b600061204d87828801611eb8565b945050602061205e87828801611eb8565b935050604061206f87828801611f60565b925050606085013567ffffffffffffffff81111561208c57600080fd5b61209887828801611f0c565b91505092959194509250565b600080604083850312156120b757600080fd5b60006120c585828601611eb8565b92505060206120d685828601611ecd565b9150509250929050565b600080604083850312156120f357600080fd5b600061210185828601611eb8565b925050602083013567ffffffffffffffff81111561211e57600080fd5b61212a85828601611f36565b9150509250929050565b6000806040838503121561214757600080fd5b600061215585828601611eb8565b925050602061216685828601611f60565b9150509250929050565b60006020828403121561218257600080fd5b600061219084828501611ee2565b91505092915050565b6000602082840312156121ab57600080fd5b60006121b984828501611ef7565b91505092915050565b6000602082840312156121d457600080fd5b60006121e284828501611f60565b91505092915050565b600080604083850312156121fe57600080fd5b600061220c85828601611f60565b925050602083013567ffffffffffffffff81111561222957600080fd5b61223585828601611f36565b9150509250929050565b61224881612a70565b82525050565b61225781612a82565b82525050565b600061226882612972565b6122728185612988565b9350612282818560208601612af3565b61228b81612cbf565b840191505092915050565b60006122a18261297d565b6122ab8185612999565b93506122bb818560208601612af3565b6122c481612cbf565b840191505092915050565b60006122da8261297d565b6122e481856129aa565b93506122f4818560208601612af3565b80840191505092915050565b600061230d603283612999565b915061231882612cd0565b604082019050919050565b6000612330602683612999565b915061233b82612d1f565b604082019050919050565b6000612353602583612999565b915061235e82612d6e565b604082019050919050565b6000612376601c83612999565b915061238182612dbd565b602082019050919050565b6000612399602483612999565b91506123a482612de6565b604082019050919050565b60006123bc601983612999565b91506123c782612e35565b602082019050919050565b60006123df602c83612999565b91506123ea82612e5e565b604082019050919050565b6000612402603883612999565b915061240d82612ead565b604082019050919050565b6000612425602a83612999565b915061243082612efc565b604082019050919050565b6000612448602983612999565b915061245382612f4b565b604082019050919050565b600061246b602e83612999565b915061247682612f9a565b604082019050919050565b600061248e602083612999565b915061249982612fe9565b602082019050919050565b60006124b1603183612999565b91506124bc82613012565b604082019050919050565b60006124d4602c83612999565b91506124df82613061565b604082019050919050565b60006124f7602083612999565b9150612502826130b0565b602082019050919050565b600061251a602f83612999565b9150612525826130d9565b604082019050919050565b600061253d602183612999565b915061254882613128565b604082019050919050565b6000612560603183612999565b915061256b82613177565b604082019050919050565b6000612583602183612999565b915061258e826131c6565b604082019050919050565b6125a281612ada565b82525050565b60006125b482856122cf565b91506125c082846122cf565b91508190509392505050565b60006020820190506125e1600083018461223f565b92915050565b60006080820190506125fc600083018761223f565b612609602083018661223f565b6126166040830185612599565b8181036060830152612628818461225d565b905095945050505050565b6000602082019050612648600083018461224e565b92915050565b600060208201905081810360008301526126688184612296565b905092915050565b6000602082019050818103600083015261268981612300565b9050919050565b600060208201905081810360008301526126a981612323565b9050919050565b600060208201905081810360008301526126c981612346565b9050919050565b600060208201905081810360008301526126e981612369565b9050919050565b600060208201905081810360008301526127098161238c565b9050919050565b60006020820190508181036000830152612729816123af565b9050919050565b60006020820190508181036000830152612749816123d2565b9050919050565b60006020820190508181036000830152612769816123f5565b9050919050565b6000602082019050818103600083015261278981612418565b9050919050565b600060208201905081810360008301526127a98161243b565b9050919050565b600060208201905081810360008301526127c98161245e565b9050919050565b600060208201905081810360008301526127e981612481565b9050919050565b60006020820190508181036000830152612809816124a4565b9050919050565b60006020820190508181036000830152612829816124c7565b9050919050565b60006020820190508181036000830152612849816124ea565b9050919050565b600060208201905081810360008301526128698161250d565b9050919050565b6000602082019050818103600083015261288981612530565b9050919050565b600060208201905081810360008301526128a981612553565b9050919050565b600060208201905081810360008301526128c981612576565b9050919050565b60006020820190506128e56000830184612599565b92915050565b60006128f5612906565b90506129018282612b58565b919050565b6000604051905090565b600067ffffffffffffffff82111561292b5761292a612c90565b5b61293482612cbf565b9050602081019050919050565b600067ffffffffffffffff82111561295c5761295b612c90565b5b61296582612cbf565b9050602081019050919050565b600081519050919050565b600081519050919050565b600082825260208201905092915050565b600082825260208201905092915050565b600081905092915050565b60006129c082612ada565b91506129cb83612ada565b9250827fffffffffffffffffffffffffffffffffffffffffffffffffffffffffffffffff03821115612a00576129ff612c03565b5b828201905092915050565b6000612a1682612ada565b9150612a2183612ada565b925082612a3157612a30612c32565b5b828204905092915050565b6000612a4782612ada565b9150612a5283612ada565b925082821015612a6557612a64612c03565b5b828203905092915050565b6000612a7b82612aba565b9050919050565b60008115159050919050565b60007fffffffff0000000000000000000000000000000000000000000000000000000082169050919050565b600073ffffffffffffffffffffffffffffffffffffffff82169050919050565b6000819050919050565b82818337600083830152505050565b60005b83811015612b11578082015181840152602081019050612af6565b83811115612b20576000848401525b50505050565b60006002820490506001821680612b3e57607f821691505b60208210811415612b5257612b51612c61565b5b50919050565b612b6182612cbf565b810181811067ffffffffffffffff82111715612b8057612b7f612c90565b5b80604052505050565b6000612b9482612ada565b91507fffffffffffffffffffffffffffffffffffffffffffffffffffffffffffffffff821415612bc757612bc6612c03565b5b600182019050919050565b6000612bdd82612ada565b9150612be883612ada565b925082612bf857612bf7612c32565b5b828206905092915050565b7f4e487b7100000000000000000000000000000000000000000000000000000000600052601160045260246000fd5b7f4e487b7100000000000000000000000000000000000000000000000000000000600052601260045260246000fd5b7f4e487b7100000000000000000000000000000000000000000000000000000000600052602260045260246000fd5b7f4e487b7100000000000000000000000000000000000000000000000000000000600052604160045260246000fd5b6000601f19601f8301169050919050565b7f4552433732313a207472616e7366657220746f206e6f6e20455243373231526560008201527f63656976657220696d706c656d656e7465720000000000000000000000000000602082015250565b7f4f776e61626c653a206e6577206f776e657220697320746865207a65726f206160008201527f6464726573730000000000000000000000000000000000000000000000000000602082015250565b7f4552433732313a207472616e736665722066726f6d20696e636f72726563742060008201527f6f776e6572000000000000000000000000000000000000000000000000000000602082015250565b7f4552433732313a20746f6b656e20616c7265616479206d696e74656400000000600082015250565b7f4552433732313a207472616e7366657220746f20746865207a65726f2061646460008201527f7265737300000000000000000000000000000000000000000000000000000000602082015250565b7f4552433732313a20617070726f766520746f2063616c6c657200000000000000600082015250565b7f4552433732313a206f70657261746f7220717565727920666f72206e6f6e657860008201527f697374656e7420746f6b656e0000000000000000000000000000000000000000602082015250565b7f4552433732313a20617070726f76652063616c6c6572206973206e6f74206f7760008201527f6e6572206e6f7220617070726f76656420666f7220616c6c0000000000000000602082015250565b7f4552433732313a2062616c616e636520717565727920666f7220746865207a6560008201527f726f206164647265737300000000000000000000000000000000000000000000602082015250565b7f4552433732313a206f776e657220717565727920666f72206e6f6e657869737460008201527f656e7420746f6b656e0000000000000000000000000000000000000000000000602082015250565b7f45524337323155524953746f726167653a2055524920736574206f66206e6f6e60008201527f6578697374656e7420746f6b656e000000000000000000000000000000000000602082015250565b7f4552433732313a206d696e7420746f20746865207a65726f2061646472657373600082015250565b7f45524337323155524953746f726167653a2055524920717565727920666f722060008201527f6e6f6e6578697374656e7420746f6b656e000000000000000000000000000000602082015250565b7f4552433732313a20617070726f76656420717565727920666f72206e6f6e657860008201527f697374656e7420746f6b656e0000000000000000000000000000000000000000602082015250565b7f4f776e61626c653a2063616c6c6572206973206e6f7420746865206f776e6572600082015250565b7f4552433732314d657461646174613a2055524920717565727920666f72206e6f60008201527f6e6578697374656e7420746f6b656e0000000000000000000000000000000000602082015250565b7f4552433732313a20617070726f76616c20746f2063757272656e74206f776e6560008201527f7200000000000000000000000000000000000000000000000000000000000000602082015250565b7f4552433732313a207472616e736665722063616c6c6572206973206e6f74206f60008201527f776e6572206e6f7220617070726f766564000000000000000000000000000000602082015250565b7f4e6f7420656e6f756768204554482073656e743b20636865636b20707269636560008201527f2100000000000000000000000000000000000000000000000000000000000000602082015250565b61321e81612a70565b811461322957600080fd5b50565b61323581612a82565b811461324057600080fd5b50565b61324c81612a8e565b811461325757600080fd5b50565b61326381612ada565b811461326e57600080fd5b5056fea2646970667358221220d626c7bf0c1619c164b2204301153baa03a53f051cb4f04e270869b0b980c52564736f6c63430008010033",
  "linkReferences": {},
  "deployedLinkReferences": {}
}